:100000000C9450050C9497050C9497050C94970547
:100010000C9497050C9497050C9497050C949705F0
:100020000C9497050C9497050C94092E0C94DB2ED8
:100030000C9404250C9497050C9497050C94970543
:100040000C9497050C9497050C9497050C949705C0
:100050000C9497050C9451250C9497050C949705D6
:100060000C9497050C9497050C9497050C949705A0
:100070000C9497050C9497050C9497050C94970590
:100080000C9497050C9497050C9497050C94970580
:100090000C9497050C9497050C9497050C94970570
:1000A0000C9497050C9497050C94970528122B1225
:1000B000331238123D12421247124C12511256128C
:1000C0005B1260126212651268126B126E1271126C
:1000D00073127812F819F8192A1A2A1A771A951A27
:1000E000ED1BED1BD71A6C1B7D1B7D1BDD1BED1B58
:1000F000ED1BE61B821C821C941C941C8B1C941C04
:10010000941C941C821C821C901C941C941C901C9B
:10011000482F6F2F67306F2F6730BB2FDE2F673070
:10012000353044302B0014001A0008001500170069
:100130001C0018000C00120013002A002900040003
:100140001600070009000A000B000D000E000F004A
:1001500033002800E1001D001B0006001900050007
:1001600011001000360037003800E500E0003100D3
:10017000E200E30001512C0000000251E700E6001C
:10018000A800E40035021E021F0220022102220202
:1001900023022402250226022702340201003A002B
:1001A0003B003C003D003E003F002D022E022F028E
:1001B000300231020100400041004200430044008F
:1001C000450001003602370238020100010001003B
:1001D0000100010001000100000001000100010018
:1001E0000100010035001E001F0020002100220038
:1001F00023002400250026002700340039004B008E
:1002000052004E004A00BD00A9002D002E002F0014
:10021000300031000100500051004F004D00BE0081
:10022000AA00A800AE0001000100010001000100C9
:1002300001000100010001000000010001000100B7
:10024000005C010044454255473A2064697361628D
:100250006C65642E0A0044454255473A20656E613C
:10026000626C65642E0A000A002530313662003A5D
:10027000200025303258000A722F6320303132338B
:100280003435363738394142434445460A007267AF
:10029000626C696768742074696D65722064697343
:1002A00061626C652E0A007267626C69676874200F
:1002B00074696D657220656E61626C65642E0A00FA
:1002C0007267626C696768742073657420687376FE
:1002D000205B4E4F454550524F4D5D3A2025752CC1
:1002E00025752C25750A007267626C696768742031
:1002F00073657420687376205B454550524F4D5DA1
:100300003A2025752C25752C25750A007267626CBC
:1003100069676874207261696E626F7720736574B3
:10032000206873763A2025642C25642C25642C25BE
:10033000750A007267626C6967687420646973612A
:10034000626C65205B454550524F4D5D3A207267A7
:10035000626C696768745F636F6E6669672E656E4D
:1003600061626C65203D2025750A007267626C69C8
:1003700067687420656E61626C65205B454550520C
:100380004F4D5D3A207267626C696768745F636F96
:100390006E6669672E656E61626C65203D2025750D
:1003A0000A007267626C6967687420746F67676CB3
:1003B00065205B454550524F4D5D3A207267626C37
:1003C000696768745F636F6E6669672E656E6162E8
:1003D0006C65203D2025750A007267626C6967684C
:1003E00074206D6F6465205B4E4F454550524F4DF4
:1003F0005D3A2025750A007267626C69676874202F
:100400006D6F6465205B454550524F4D5D3A202528
:10041000750A007267626C696768745F696E6974F7
:10042000207267626C696768745F636F6E66696784
:100430002E6D6F6465203D20302E205772697465E3
:100440002064656661756C742076616C75657320D7
:10045000746F20454550524F4D2E0A007267626CF2
:10046000696768745F696E6974206565636F6E663D
:100470006967206973206E6F7420656E61626C65B8
:10048000642E0A007267626C696768745F696E69DE
:1004900074207374617274210A007267626C6967F8
:1004A00068745F696E69742063616C6C65642E0AA0
:1004B000007267626C696768745F636F6E66696714
:1004C0002E7370656564203D2025640A00726762A2
:1004D0006C696768745F636F6E6669672E76616CBE
:1004E000203D2025640A007267626C696768745F4A
:1004F000636F6E6669672E736174203D2025640A00
:10050000007267626C696768745F636F6E666967C3
:100510002E687565203D2025640A007267686C6945
:100520006768745F636F6E6669672E6D6F646520C0
:100530003D2025640A007267626C696768745F63B6
:100540006F6E6669672E656E61626C65203D202561
:10055000640A007267626C696768745F636F6E66D5
:10056000696720454550524F4D3A0A0000047F3FCD
:100570001F643214643214783C1E1E140A052223B0
:10058000252628292A2C2D2F3032333536383A3B70
:100590003D3E4042434547494A4C4E5051535557C2
:1005A000595A5C5E6062646668696B6D6F717375E1
:1005B00077797B7D7F81838587898A8C8E909294E1
:1005C00096989A9C9E9FA1A3A5A7A8AAACAEAFB1EE
:1005D000B3B4B6B8B9BBBCBEBFC1C2C3C5C6C7C938
:1005E000CACBCCCDCED0D1D2D2D3D4D5D6D7D7D8F2
:1005F000D9D9DADADBDBDBDCDCDCDCDCDDDDDDDD44
:10060000DCDCDCDCDCDBDBDBDADAD9D9D8D7D7D64B
:10061000D5D4D3D2D2D1D0CECDCCCBCAC9C7C6C502
:10062000C3C2C1BFBEBCBBB9B8B6B4B3B1AFAEAC48
:10063000AAA8A7A5A3A19F9E9C9A98969492908EF3
:100640008C8A89878583817F7D7B79777573716FCC
:100650006D6B6968666462605E5C5A5957555351A8
:10066000504E4C4A4947454342403E3D3B3A38365E
:10067000353332302F2D2C2A292826252322FFAA74
:100680007F55406261636B6C696768742073746541
:10069000703A2025750A006261636B6C6967687443
:1006A0002064697361626C650A006261636B6C69E6
:1006B00067687420656E61626C650A006261636BD5
:1006C0006C6967687420746F67676C653A2025757C
:1006D0000A006261636B6C696768742064656372A9
:1006E000656173653A2025750A006261636B6C6908
:1006F00067687420696E6372656173653A20257559
:100700000A000001010101010101010102020202CE
:1007100002020202020303030303030303040404AB
:100720000404040405050505050606060606070774
:1007300007070708080808090909090A0A0A0B0B2C
:100740000B0C0C0C0D0D0D0E0E0E0F0F0F101011CB
:100750001111121213131414151516161717181851
:1007600019191A1A1B1B1C1D1D1E1E1F20202122B9
:1007700022232424252626272829292A2B2C2D2DFF
:100780002E2F30313232333435363738393A3B3C1C
:100790003D3E3F404142434445464748494A4C4D0F
:1007A0004E4F50515354555658595A5B5D5E5F61D8
:1007B0006264656668696B6C6D6F7072737577786B
:1007C0007A7B7D7E8082838587888A8C8E8F9193C9
:1007D0009596989A9C9EA0A2A3A5A7A9ABADAFB1F0
:1007E000B3B5B7BABCBEC0C2C4C6C9CBCDCFD1D4D5
:1007F000D6D8DBDDDFE2E4E7E9EBEEF0F3F5F8FA7B
:10080000FDFF0A002530325820006B6579626F6168
:1008100072645F7265706F72743A20000A0025304E
:100820003258006B6579626F6172645F7365745FE3
:100830006C65643A200064656C5F6B65795F626922
:10084000743A2063616E27742064656C3A20253009
:1008500032580A006164645F6B65795F6269743A5B
:100860002063616E2774206164643A202530325819
:100870000A00290A002575002F002575005D280053
:100880002564002000256400200025640020002548
:1008900064007C0025303258006D6F7573656B65A0
:1008A00079205B62746E7C782079207620685D28E0
:1008B0007265702F61636C293A205B005B735D0089
:1008C0004B6579626F6172642073746172742E0A71
:1008D000005B575D005B535D005B525D005B445DF8
:1008E000005B435D0004033000000012034E00492A
:1008F00000550020004D0069006E006900000010E6
:10090000034B0042004400460061006E007300008B
:10091000000403090409025B00030100A0FA0904B2
:100920000000010301010009211101000122400022
:100930000705810308000A09040100010300000003
:1009400009211101000122BC000705820320000AD1
:100950000904020002030000000921110100012224
:10096000220007058303200001070503032000017F
:1009700012011001000000086D6E0100010001026B
:1009800003010631FF0974A1010975150026FF0056
:100990009520750881020976150026FF00952075BF
:1009A000089102C005010902A10185020901A10007
:1009B0000509190129051500250195057501810213
:1009C0009501750381010501093009311581257FE4
:1009D00095027508810609381581257F95017508EE
:1009E0008106050C0A38021581257F95017508815D
:1009F00006C0C005010980A101850319012AB700BD
:100A0000150126B700950175108100C0050C09017C
:100A1000A101850419012AA002150126A002950151
:100A200075108100C005010906A10185050507199A
:100A3000E029E715002501950875018102050719D0
:100A40000029EF1500250195F075018102050819AF
:100A5000012905950575019102950175039101C064
:100A600005010906A101050719E029E7150025017F
:100A70009508750181029501750881010507190026
:100A800029FF150026FF0095067508810005081945
:100A9000012905950575019102950175039101C024
:100AA00011241FBECFEFDAE0DEBFCDBF04B603FED8
:100AB00027C08091010390910203A0910303B0919C
:100AC00004038730904BA740B04BD1F41092010340
:100AD00010920203109203031092040314BE84B711
:100AE000877F84BF0FB6F894A895809160008861D5
:100AF00080936000109260000FBEE0E0F8E309957B
:100B000011E0A0E0B1E0EAE0F3E602C005900D924A
:100B1000AE3CB107D9F723E0AEECB1E001C01D92C5
:100B2000A130B207E1F70E942F2B0C9483310C9473
:100B30000000FF93EF93E091CE01F091CF01309749
:100B400009F00995EF91FF910895FC01859180309E
:100B500011F0EFDFFBCF0895FF27E0E230E247FF1F
:100B60000CC0419597FF09C0EDE2609570958095A6
:100B70009095611D711D811D911D27FF02C021955A
:100B800030E350E2AA27660F771F881F991FAA1F1C
:100B9000A41710F0A41B63955A95A9F7AA3008F082
:100BA000A95FA05DAF93F39561157105810591056E
:100BB00041F7ED3211F4EF93F395F21718F43F93E8
:100BC000F395FBCF8F91B5DFFA95E1F70895E991A1
:100BD000F9918591803021F0853219F0AADFF9CFA3
:100BE000089520E0E89455915532C1F3503311F443
:100BF000689455915A3348F4505390F3220F022EC3
:100C0000220F220F200D250FF4CF0EF4219589918C
:100C10009991533619F3533729F1533559F1BC01E2
:100C200088279927E8945C3621F4899199916894F2
:100C30005591543639F446EF7EF077FF0DC08FEFB3
:100C40009FEF0AC055374AE039F0583540E121F0AE
:100C5000523642E009F00895FF93EF937DDFEF9164
:100C6000FF91B7CFFF93EF93FC0181918030B9F3EF
:100C700060DFFBCFFF93EF9368DFF1CFDF93CF937C
:100C8000CDB7DEB72596A3DFCF91DF9108956E9A99
:100C9000769A0C94940981E0089581E008950C946B
:100CA0004D0608950C9451061F93CF93DF9300D007
:100CB00000D01F92CDB7DEB749835A836B83309142
:100CC000F20189819A81311114C0662359F02223DF
:100CD00049F00E94BB21182F682F89819A810E94B8
:100CE000642103C00E948F21182F69817A81812F8E
:100CF00004C00E94BB2169817A810F900F900F90F0
:100D00000F900F90DF91CF911F910C943107FC0150
:100D1000262F408151816281738184810C94540615
:100D2000CF93DF93EC0160E00E948706BE01DF9164
:100D3000CF910C9452060E941723811102C00E9489
:100D4000C0230E945F140C9447060C9492090895E6
:100D50000C94A70681E008950C94AA06CF93C82F9F
:100D60000E94A8068C2F0E94AC06CF91089508958A
:100D70000E94701C0E94B7062FEF84E39CE0215074
:100D800080409040E1F700C000000C9477250F935D
:100D90001F93CF93DF93EC0161E00E9487068C01E3
:100DA000BE010E944F06882309F450C0BE01C8014D
:100DB0000E94C813882309F449C0BE01C8010E94DB
:100DC0002215882309F442C0BE01C8010E946315A0
:100DD0008823E1F1BE01C8010E948E168823B1F17B
:100DE000BE01C8010E941112882381F18A818823E3
:100DF00031F101308CE5180751F00E3D8CE51807F4
:100E0000D9F001151C45D9F40E94B8061FC0809185
:100E10007602C82FC095C170C0FB80F9809376021E
:100E2000CC2329F086E592E00E94A5050FC084E45A
:100E300092E00E94A5050BC00E94C02307C0CE010E
:100E4000DF91CF911F910F910C944B06C0E08C2F36
:100E5000DF91CF911F910F91089580E090E0089568
:100E6000089520E3829FC0011124FC012CE0729FB1
:100E7000E00DF11D1124E60FF11DEE0FFF1FEC5DDB
:100E8000FE4F859194910895880F991FFC01E959AF
:100E9000FD4F859194910895CF93DF930E94310780
:100EA0000E946408EC018115904508F041C0C1150D
:100EB00080E4D80708F0D1C0C83ED10510F5C03E87
:100EC000D10508F0FDC0C83AD10578F4C53AD1057E
:100ED00008F0A2C0C130D10509F4F2C008F4EEC098
:100EE000C430D10508F0ECC0E9C0CF3BD10508F40F
:100EF0009BC0C03CD10508F4E1C0CE01805C9109E3
:100F00009EC0C11590E2D90758F4C11521E0D2075F
:100F100008F0D6C0C03FD10508F4D0C0D065D0C01D
:100F2000C11580E3D80708F08EC0CE019F7087C03E
:100F3000C11595E5D90708F043C0C11524E5D207CE
:100F400008F0A2C0C11582E5D80708F5C11591E5E2
:100F5000D90708F085C0CE0174E0969587957A95FB
:100F6000E1F783709C2F937021E030E002C0220FE4
:100F7000331F9A95E2F73C68382BCF70C695C6951B
:100F800080E2C89FE0011124C22BD32B99C09E019F
:100F9000237033278C2F86958695C115D34508F08D
:100FA00064C0C1E0D0E002C0CC0FDD1F2A95E2F79B
:100FB00020E2829FC0011124C82BD92BDC6880C09D
:100FC000C11529E5D207A0F4C11588E5D80708F0B6
:100FD00060C0C11596E5D90708F070C08C2F0E943B
:100FE000F8088F71C82FD0E0DC2FCC27D06268C002
:100FF000C1152AE5D20708F451C0CE0190568115DB
:10100000904208F05BC08D2F8F710E94F808DD2799
:10101000D0628F71D82B54C0C55AD0E0CB5ADE4F66
:10102000C881D0E0D0644CC0C85AD0E0CC0FDD1FDE
:10103000C95DDE4F0990D881C02DD46441C00E94A3
:101040004407EC013DC0CE019927D3FF03C0EC015A
:10105000D86C36C0EC01D06C33C0DF70D06A30C0C1
:10106000DC2FCC27C16FD06A2BC0C1E0D0E002C01A
:10107000CC0FDD1F2A95E2F720E2829FC0011124E8
:10108000C82BD92BDA681CC0DC2FCC27C46FD06AE0
:1010900017C0DC2FCC27C06FD06A12C08C2F8F7086
:1010A0000E94F80894E0D695C7959A95E1F7CF701D
:1010B000D0E0DC2FCC27D069C82B02C0C0E0D0E044
:1010C000CE01DF91CF9108958238910569F1B0F496
:1010D0008133910509F46DC048F48932910509F412
:1010E00063C08A32910509F469C00895853391057A
:1010F00009F455C089339105B9F00895833E9105EF
:1011000069F138F4803E9105B1F0823E910509F114
:101110000895863E9105A9F1873E9105B9F1843E77
:10112000910509F064C023C02091F20220FD4FC058
:1011300021FD4DC008958091F20280FD44C0809150
:10114000F30280FF44C08091F20284FD42C083EE2E
:101150004DC08091F20282FF38C0F5CF8091F2023B
:1011600082FD33C08091F30280FD31C0ECCF8091CD
:10117000F30281FF32C08091F20284FD2AC087EE23
:1011800035C08091F20283FF26C0F5CF8091F20234
:1011900083FD21C08091F30281FD1FC0ECCF8091BF
:1011A000F20285FD1CC01DC08091F20285FD19C0B0
:1011B00016C08091F20286FD16C017C08091F2021F
:1011C00086FD13C010C089E311C082EE0FC080EE0F
:1011D0000DC080E00BC086EE09C084EE07C089E236
:1011E00005C085E303C08AE201C081E390E0089571
:1011F0009091F20292FF0DC0282F2871283019F427
:10120000877F846006C0282F2471243011F48B7FDF
:10121000886093FF0DC0282F2871283119F4877E2C
:10122000846106C0282F2471243111F48B7E8861DB
:101230002091F30220FF0DC0382F3871383019F497
:10124000877F816006C0382F3171313011F48E7F75
:10125000886021FF0DC0282F2871283119F4877E5E
:10126000816106C0282F2171213111F48E7E8861A1
:1012700094FD877E0895E82FF0E0EE0FFF1FEC54F9
:10128000FD4F808191810895CF92DF92EF92FF927E
:101290000F931F93CF93DF9387E792E00E94A505FA
:1012A00084EBE82E82E0F82EC0E0D0E092E7C92E71
:1012B00092E0D92E09E612E0DF93CF93DF92CF922E
:1012C0000E943E068FE692E00E94A505F7018191FB
:1012D00091917F010E9404239F938F931F930F93FB
:1012E0000E943E0687E692E00E94A50521968DB7F2
:1012F0009EB708960FB6F8949EBF0FBE8DBFC43040
:10130000D105D1F6DF91CF911F910F91FF90EF9012
:10131000DF90CF90089580EA8A95F1F708950895B7
:101320000C948F090C9490090C948F09CF93DF9340
:10133000A4E6B1E048E651E061E070E08D91E82F6D
:10134000E295EF70F0E021A18F70EB0102C0CC0FAD
:10135000DD1F8A95E2F7CE019C2F9095922391A3F1
:1013600092A1892B82A34A175B0741F7A8E5B1E058
:1013700041E050E08D91E82FE295EF70F0E021A17F
:101380008F70BA0102C0660F771F8A95E2F7CB0112
:10139000962F9095922391A392A1892B82A371E01D
:1013A000A436B70739F71092AD021092AC02109232
:1013B000B5021092B4021092AF021092AE021092D7
:1013C000B7021092B6021092B1021092B0021092BF
:1013D000B9021092B8021092B3021092B2021092A7
:1013E000BB021092BA0284E00E94970ADF91CF916B
:1013F0000C949B062F923F924F925F926F927F9236
:101400008F929F92AF92BF92CF92DF92EF92FF9214
:101410000F931F93CF93DF9384E6C82E81E0D82EDD
:101420000CEA12E094EB492E92E0592E312C8824DC
:101430008394912C5801D8016D907C9011971D9246
:101440001C92F60181916F01C82FC295CF70D0E038
:1014500099A18F70740101C0EE0C8A95EAF7892F6B
:101460008E2989A38AA12E2C209482218AA30E94EE
:101470008B09E8E5F1E020E030E06191A62FA2952C
:10148000AF70B0E090968C91D8014D915C9190E056
:101490006F7002C0959587956A95E2F780FD08C048
:1014A000C401022E02C0880F991F0A94E2F702C0FD
:1014B00080E090E0482B592BD8014D935C932F5F2F
:1014C0003F4F2C303105C9F689A1282229A28AA1D3
:1014D000E82AEAA20E5F1F4F81E0F50120813181E9
:1014E0002615370509F480E0382A4016510609F020
:1014F000A1CF232D44E064EB72E08CEA92E00E94DD
:10150000980A0E94A506832DDF91CF911F910F911C
:10151000FF90EF90DF90CF90BF90AF909F908F9013
:101520007F906F905F904F903F902F900895089517
:10153000FF920F931F93CF93DF93F82E092F162F4F
:10154000D72FC42F222349F081E08093D2010E943B
:1015500036259093D1018093D0018091D2018823C8
:10156000D9F08091D0019091D1010E944225069737
:1015700098F0EF2DF02FA12FBD2F80E090E04C2FA1
:1015800050E08417950734F4219131912D933D93C8
:101590000196F7CF1092D201DF91CF911F910F9159
:1015A000FF900895EF92FF920F931F93CF93DF93D5
:1015B000F62E472FE82FF0E0711106C0EE5FF84FCE
:1015C0006491762F862F72C0272F30E0EE5FF84FA0
:1015D000E4910E2F10E056E0659FC0011124CFEF7B
:1015E000D0E0BE010E94C4305BEA5603C001579FA1
:1015F000900D11248F0D911D8F0D911D982F990F16
:10160000890F7E01E21AF30AE09ED001E19EB00D3F
:10161000F09EB00D1124489FA0011124452F55279D
:101620007E01E41AF50AE09EA001E19E500DF09EB5
:10163000500D11247E01E81AF108E29EC001E39EDC
:10164000900DF29E900D1124892F9927C81BD90B5C
:10165000C09FC001C19F900DD09F900D112462309A
:10166000710591F048F461157105E1F06130710583
:10167000A9F48B2F752F19C06430710561F038F013
:101680006630710579F00AC0892F7B2F0EC08E2F2E
:101690007B2FE52F0AC08E2F792F02C0852F7E2F3A
:1016A000EB2F03C08B2F7E2FE92F6E2FDF91CF9171
:1016B0001F910F91FF90EF9008950895CF93DF93BE
:1016C000762FE901682F842F0E94D20A79836883DC
:1016D0008A83DF91CF9108958091BC02282F2695AF
:1016E00030E02115310519F48170826005C0253282
:1016F000310524F0817088648093BC02089588E0ED
:1017000090E00C944331CF92DF92EF92FF926B0105
:101710007C010E946C0BB701A60188E090E0FF906D
:10172000EF90DF90CF900C946131ECEBF2E083E02E
:10173000808311828FEF8283838314826081718121
:10174000828193810C94830B8091760280FF08C084
:1017500083E595E09F938F930E943E060F900F9034
:101760008091760280FF0FC08091BC0281701F9231
:101770008F9386E395E09F938F930E943E060F9090
:101780000F900F900F908091760280FF0FC0809194
:10179000BC0286951F928F938BE195E09F938F9368
:1017A0000E943E060F900F900F900F90809176024E
:1017B00080FF0EC08091BD021F928F9381E095E063
:1017C0009F938F930E943E060F900F900F900F9063
:1017D0008091760280FF0EC08091BE021F928F938F
:1017E00087EE94E09F938F930E943E060F900F9098
:1017F0000F900F908091760280FF0EC08091BF0203
:101800001F928F938DEC94E09F938F930E943E06DE
:101810000F900F900F900F908091760280FF0EC076
:101820008091C0021F928F9381EB94E09F938F93DE
:101830000E943E060F900F900F900F900895809198
:10184000BC0280FF02C08695089580E008958091D3
:10185000C002833018F48F5F8093C0026091BC0295
:101860007091BD028091BE029091BF020C94830BD7
:101870008091C002882319F081508093C00260914A
:10188000BC027091BD028091BE029091BF020C9487
:10189000830B70E00C94AB14609103018091BC0247
:1018A00080FF0AC08091020123E0829FC0011124C1
:1018B0008F539D4F0C94490C809104019091050128
:1018C000891780F7E82FF0E09F01220F331FE20F06
:1018D000F31FEF53FD4F1182108212828F5FF0CF02
:1018E0009091BC0290FF16C09091040120910501D7
:1018F000921770F4E92FF0E0DF01AA0FBB1FEA0F87
:10190000FB1FEF53FD4F8183608342839F5FF0CFC6
:101910000C944C0C0895CF93DF9300D01F92CDB759
:10192000DEB79091BC0290FF0AC09E012F5F3F4F2F
:101930000E945E0B4B8169818A810E94700C0F901E
:101940000F900F90DF91CF910895CF93DF93EC012B
:10195000EC81F0E0E258FA4F4491ECEBF2E0628166
:1019600081810E948B0C8C818F5F8C83DF91CF9162
:101970000895CF93DF93EC01ECEBF2E043816281B9
:101980008C810E948B0C8C818F5F8C83DF91CF9137
:1019900008950F931F93CF93DF9300D01F92CDB77D
:1019A000DEB78C018091D30181110AC09E012F5FA7
:1019B0003F4F4FEF6FEF0E945E0B8A818093D30100
:1019C000F8018481813051F028F0823061F4409137
:1019D000D3010AC08091D30140E007C06091D301D8
:1019E00040E080E003C040E080E060E00E94700CD6
:1019F000F801848190E0019663E070E00E94D830A5
:101A000084830F900F900F90DF91CF911F910F91D2
:101A100008954F925F926F927F928F929F92AF92B2
:101A2000BF92CF92DF92EF92FF920F931F93CF93CB
:101A3000DF9300D01F92CDB7DEB7F82EB62EE42E7E
:101A4000622E9091BC0290FFB4C0E92FE695AE2FB4
:101A5000B0E0A859BE4F8C918093DD019E7F9230FB
:101A600061F49E012F5F3F4F8F2D0E945E0B4B81D3
:101A700069818A810E94700C62C0823019F4E09002
:101A8000BF025DC0863019F4F090BD0258C08930A5
:101A9000D9F3893109F053C0E9518E2F8170782E26
:101AA00081E0A72CA826E695F0E0E258F94FC59012
:101AB000D490412CDD249CE0892E93E0992E6091F6
:101AC00006014616D0F5042D10E00C9DC0010D9DB9
:101AD000900D1C9D900D112470E00E94C4305F2C6D
:101AE000711002C0560E01C0561A8091760280FF16
:101AF00011C0DF92CF921F92AF921F925F921F92FE
:101B00004F929F928F920E943E060FB6F894DEBFCE
:101B10000FBECDBF80910401080F111D9801220F47
:101B2000331F020F131F98012F533D4F4E2D6B2D66
:101B3000852D0E945E0B4394C2CF0E944C0CF09204
:101B4000BD02B092BE02E092BF026620E9F0609151
:101B5000BC027091BD028091BE029091BF020E94B2
:101B6000830B8091760280FF24C08091BF021F9278
:101B70008F938091BE021F928F938091BD021F921E
:101B80008F9387EE92E00CC08091760280FF11C0A7
:101B90001F92EF921F92BF921F92FF9280EC92E0F1
:101BA0009F938F930E943E060FB6F894DEBF0FBE40
:101BB000CDBF0F900F900F90DF91CF911F910F919C
:101BC000FF90EF90DF90CF90BF90AF909F908F905D
:101BD0007F906F905F904F900895ECEBF2E09181D1
:101BE000282F4381628188E0890F0C94090D81E0E0
:101BF0000C94ED0DECEBF2E09181282F4381628192
:101C000088EF890F0C94090D81E00C94FA0DECEB30
:101C1000F2E0628128E0620F08F46FEF282F438121
:101C200081810C94090D81E00C94070EECEBF2E03D
:101C3000628128E0621B08F460E0282F43818181E3
:101C40000C94090D81E00C94160EECEBF2E043814C
:101C500028E0420F08F44FEF282F628181810C9415
:101C6000090D81E00C94250EECEBF2E0438128E0B5
:101C7000421B08F440E0282F628181810C94090DF9
:101C800081E00C94340E20E00C94090DFF920F9328
:101C90001F93CF93DF93EC01F12C0FEF10E06091D5
:101CA0000601F616F0F4809104012F2D30E0280F84
:101CB000311DC901880F991F280F391F2F533D4F20
:101CC00070E0C8010E94D830962F8C814091BF02ED
:101CD0006091BE02F99E800D11240E945E0BF39468
:101CE000DECF0E944C0C9A818C8190FF02C08F5FE6
:101CF00001C081508C83DF91CF911F910F91FF9094
:101D00000895AF92BF92CF92DF92EF92FF920F931E
:101D10001F93CF93DF93FC01828180FF02C00FEFFE
:101D200001C001E010E04EE0A42E809106011817DA
:101D300008F043C080910401C12ED12CE601C80FE8
:101D4000D11DCE01880F991FC80FD91FCF53DD4F6A
:101D5000198218821A8234E0E32EF12CB12C809182
:101D6000D5018B0D8F302CF06A2D0E94B630892F53
:101D700005C087FF03C090910601890F082E000C53
:101D8000990BC816D90691F48091BF028E9DA001CF
:101D90008F9D500D112455954795559547959E015A
:101DA0006091BE028091BD020E945E0BB00EF1E018
:101DB000EF1AF108A1F61F5FB8CF0E944C0C80917A
:101DC000D501013031F4811102C0809106018150AA
:101DD00007C090E001966091060170E00E94D83043
:101DE0008093D501DF91CF911F910F91FF90EF90DC
:101DF000DF90CF90BF90AF900895CF938091040172
:101E000090910501891770F4E82FF0E09F01220FEF
:101E1000331FE20FF31FEF53FD4F11821082128226
:101E20008F5FF0CFC0E060910601C617C0F5EC2FC0
:101E3000F0E070E0CF010E94D83020910401820FC1
:101E40002091D401022E000C330B90E0E217F3072F
:101E5000CCF020910101022E000C330B2E173F070E
:101E60008CF09C01220F331F820F931F9C012F5374
:101E70003D4F4091BF026091BE028091BD020E9421
:101E80005E0B0BC0FC01EE0FFF1F8E0F9F1FFC01AE
:101E9000EF53FD4F118210821282CF5FC4CF0E9498
:101EA0004C0C209100018091D401820F8093D401C9
:101EB00090910101920F9093010119165CF4082E84
:101EC000000C990B4091060150E0415051098417D4
:101ED00095071CF0219520930001CF9108950F9351
:101EE0001F93CF93DF938C01FC0184819581019630
:101EF0008170992795838483C0E0D5E580910601A0
:101F0000C81700F5809104012C2F30E0280F311DF7
:101F1000C901880F991F280F391F2F533D4F4C2F90
:101F20004695F80184819581840F911D81704091BF
:101F3000BF026091BE028D9F802D11240E945E0B16
:101F4000CF5FDCCFDF91CF911F910F910C944C0CA0
:101F50000F931F93CF93DF93EC0100E010E080918B
:101F60000601282F30E00217130724F59091040191
:101F70009801290F311DA901440F551F240F351F4A
:101F80002F533D4F869590E04C81081719071CF49C
:101F9000442331F002C0411103C04091BF0201C08F
:101FA00040E06091BE028091BD020E945E0B0F5F17
:101FB0001F4FD5CF0E944C0C8C8190E00196817010
:101FC00099278C83DF91CF911F910F910895609194
:101FD000BC02669570E04BE050E087E091E00E9423
:101FE0002E31892B19F481E08093DE010E94362581
:101FF0009093D7018093D6018091760280FF08C02C
:1020000087EA92E09F938F930E943E060F900F9075
:1020100008951092DE018091760280FF08C08EE85C
:1020200092E09F938F930E943E060F900F90089529
:102030009091BC0290FF54C09170811102C09260D7
:1020400006C0853210F0986402C0880F982B9093D8
:10205000BC026623B1F06091BC027091BD02809118
:10206000BE029091BF020E94830B8091760280FF96
:102070001BC08091BC0286951F928F9387EF93E0DF
:102080000BC08091760280FF0FC08091BC028695C4
:102090001F928F9389ED93E09F938F930E943E064A
:1020A0000F900F900F900F906091BC02669570E0BA
:1020B0004BE050E087E091E00E942E31892B19F02F
:1020C0000E94091002C00E94E70F81E08093D901AD
:1020D0004091BF026091BE028091BD020C94430EFC
:1020E0000895682F9091BC02969581E0890F853202
:1020F00008F081E00C94181081E00C947110682FA6
:102100009091BC0296958FEF890F09F484E20C94AC
:10211000181081E00C947F1061E00C9418108091ED
:10212000BC0281608093BC028091760280FF0DC06A
:102130001F9281E08F938BE693E09F938F930E9491
:102140003E060F900F900F900F908091BC028695E5
:102150000C948C1060E00C9418108091DC018111BB
:1021600060C08091760280FF08C08AE994E09F9366
:102170008F930E943E060F900F908091760280FF11
:1021800008C084E894E09F938F930E943E060F90CE
:102190000F900E941723811110C08091760280FF5A
:1021A00008C08CE594E09F938F930E943E060F90A9
:1021B0000F900E94C0230E94950B0E947F0B60939A
:1021C000BC027093BD028093BE029093BF026E7FEB
:1021D000C1F48091760280FF08C083E194E09F9370
:1021E0008F930E943E060F900F900E94950B0E94C5
:1021F0007F0B6093BC027093BD028093BE029093EC
:10220000BF020E946C0B0E94A40B1092DE01809111
:10221000BC0280FF03C086950E94AA1081E08093D3
:10222000DC0108958091BC028E7F8093BC02609196
:10223000BC027091BD028091BE029091BF020E94CB
:10224000830B8091760280FF0FC08091BC02817069
:102250001F928F9383E393E09F938F930E943E0698
:102260000F900F900F900F900E9409102FEF80E7B2
:1022700092E0215080409040E1F700C000000C94B3
:102280004C0C8091760280FF10C08091BC0280953A
:1022900081701F928F9382EA93E09F938F930E94A5
:1022A0003E060F900F900F900F908091BC0280FD22
:1022B0000C9412110C948F100F931F93CF93DF93F4
:1022C0008091DE01882309F48CC08091DD01E091CA
:1022D000BC02E695E81BE093D801823049F4F0E0B7
:1022E000E658FA4FE491CE2FD0E005EA1CE049C051
:1022F000863049F4F0E0E958FA4FE491CE2FD0E06F
:1023000009EB1CE03EC0893051F4E695F0E0EC5852
:10231000FA4FE491CE2FD0E006E41EE032C08F30B9
:1023200051F4E695F0E0EF58FA4FE491CE2FD0E06B
:1023300001E81EE026C0853149F4F0E0E259FA4F89
:10234000E491CE2FD0E00DEF1EE01BC0883181F06C
:10235000833239F4ECE6F5E0C591D49109EC1CE048
:1023600010C0843251F4C4EFD1E008EA1FE009C084
:10237000C8EED3E00FE61FE004C0C0EDD7E00DE5E6
:102380001BE08091D901882389F01092D9010E9425
:1023900036259E0120953095820F931F9093D7018B
:1023A0008093D6011092DB011092DA018091D60160
:1023B0009091D7010E9442258C179D0790F0E091E3
:1023C000D601F091D701CE0FDF1FD093D701C09374
:1023D000D60186ED91E0F801DF91CF911F910F9129
:1023E0000994DF91CF911F910F910895882311F0E7
:1023F000FA0101C0FB010994CF93DF93C82FD62FB8
:102400000E941F0C8C1740F00E941F0C8D1720F4A7
:10241000DF91CF910C947C108C2FDF91CF910C9495
:102420008C100F931F93CF93FB01C281CC2309F42F
:1024300063C08C010E943C228272F801E25CFC4580
:10244000E431F10508F059C0EA5AFF4F0C940E31FF
:102450000E94411106C049E850E16CE770E10E941A
:10246000F611C0E04AC04CE750E169E870E1F7CFEF
:1024700044E05EE067EF7DE0F2CF47EF5DE064E0CF
:102480007EE0EDCF42E25EE063E17EE0E8CF43E153
:102490005EE062E27EE0E3CF40E45EE061E37EE0A6
:1024A000DECF41E35EE060E47EE0D9CF48E35CE06C
:1024B00067E27CE0D4CF47E25CE068E37CE0CFCF2A
:1024C00081E017C065E082E010C068E086E00DC0E2
:1024D0006EE089E00AC064E18FE007C067E185E152
:1024E00004C088E106C062E289E10E94FC11B9CF14
:1024F00083E20E948C10B5CFC1E08C2FCF911F9149
:102500000F9108950E941723811102C00E94C023D9
:102510000E9448238093EB02282F26952695269526
:1025200030E02530310524F0877080628093EB0223
:102530008091EB0280FF04C086958695869501C048
:1025400080E00C94FD132091EB02822F86958695F6
:102550008695482F50E04430510554F48F5F982FF2
:10256000990F990F990F822F8770892B8093EB0217
:102570008091EB0281608093EB020E944C2380915A
:10258000760280FF11C08091EB0286958695869534
:102590001F928F938AEE96E09F938F930E943E0640
:1025A0000F900F900F900F908091EB02869586957B
:1025B00086950C94FD138091EB02982F9695969535
:1025C0009695A1F0915E990F990F990F8770892BBD
:1025D0008093EB02887F91E009F490E08091EB0218
:1025E00090FB80F98093EB020E944C23809176024D
:1025F00080FF11C08091EB028695869586951F928B
:102600008F9382ED96E09F938F930E943E060F90EA
:102610000F900F900F908091EB028695869586958E
:102620000C94FD138091EB0280FD1FC081608093AC
:10263000EB02813019F489E08093EB028091EB0288
:102640000E944C238091760280FF08C08AEA96E0BF
:102650009F938F930E943E060F900F908091EB0204
:102660008695869586950C94FD1308958091EB02CE
:1026700080FF14C08E7F8093EB020E944C238091D8
:10268000760280FF08C087E996E09F938F930E94AF
:102690003E060F900F9080E00C94FD130895CF93A9
:1026A000C091EB02C1708091760280FF0CC01F9236
:1026B000CF938CEB96E09F938F930E943E060F90F2
:1026C0000F900F900F90CC2319F0CF910C943613EC
:1026D000CF910C9412139091EB02892F86958695D9
:1026E00086958F5F8F719770853038F4880F880FCB
:1026F000880F892B8093EB0202C09093EB028091AC
:10270000EB02887F91E009F490E08091EB0290FB6E
:1027100080F98093EB020E944C238091760280FF27
:1027200011C08091EB028695869586951F928F93B6
:1027300083E896E09F938F930E943E060F900F9040
:102740000F900F908091EB028695869586950C945C
:10275000FD13853008F084E09091EB029770282FEC
:10276000220F220F220F922B9093EB02987F21E0F1
:1027700009F420E09091EB0220FB90F99093EB029A
:102780000C94FD130E94A9138091EB020C944C232E
:102790009C01FB018281882349F12D3BFCE53F0729
:1027A000C9F040F42B3BECE53E0769F02C3B3C457F
:1027B00061F008952F3B9CE5390791F070F0203CC3
:1027C0003C4589F0089584E001C080E00E94C21376
:1027D00080E008950E94DB12FBCF0E94A312F8CF85
:1027E0000E944F13F5CF0E946B13F2CF81E0089542
:1027F000269A2E9808952E980895CF92DF92EF9200
:10280000FF92CF93C82F853050F4811109C0809179
:1028100080008F7D809380000E94FB1306C0C4E07F
:10282000809180008062809380002C2F30E0AFEF99
:10283000BFEF0E941431DC01CB0142E0B695A795B1
:10284000979587954A95D1F78C3744E1940728F4FA
:1028500069E070E00E94C43027C08A50974DAF4FA6
:10286000BF4F6627782F892F9A2F25EF38E241E056
:1028700050E00E94EC3069017A01CA01B9010E945E
:102880009A309B01AC01C701B6010E949A30BB2768
:10289000A92F982F872F009721E0A207B10511F0EB
:1028A000BC0102C06FEF7FEF70938B0060938A00D2
:1028B000CF91FF90EF90DF90CF90089508950E9400
:1028C000F81382E28093800089E1809381008FEF8A
:1028D0009FEF90938700809386000C9482125DB1E5
:1028E000E42FEF7021E030E001C0220FEA95EAF713
:1028F000352F322B3DB942954F70E42FF0E032A1D5
:10290000422F4095342342A1242B4FB7F894FC0169
:10291000CB01880F991F680F791F6E0F7F1FE61775
:10292000F70789F0819198E02EB9000000C087FF79
:102930003EB9880F000000C000C000C03EB900C012
:102940009A9591F7ECCF4FBF87EC90E00197F1F7A4
:1029500000C00000089542EC0C946F140F931F9375
:10296000CF93DF93C62FD42F122FFC0182818823AF
:10297000C9F06093E1010E9436259093E0018093B5
:10298000DF0180E28C0F883008F057C0C77081E00B
:1029900001C0880FCA95EAF7DF91CF911F910F917F
:1029A0000C94B8198091E101681330C08091DF0167
:1029B0009091E0010E944225883C910538F500E2A3
:1029C0000D0FCD17B9F080E28C0F883040F4C7703E
:1029D00081E001C0880FCA95EAF70E94BF1908304C
:1029E00028F581E09D2F977001C0880F9A95EAF72E
:1029F0000E94B819812F0E94A5190830F0F4D770F1
:102A000081E001C0880FDA95EAF70AC080E28C0FF6
:102A1000883098F4C77081E001C0880FCA95EAF742
:102A2000DF91CF911F910F910C94BF19812FDF91EE
:102A3000CF911F910F910C94A519DF91CF911F9108
:102A40000F9108959C01CB01233F4CE53407F9F029
:102A500078F4283DFCE53F07B9F0293D4CE5340703
:102A600011F1273D3C4531F526E241EE61EE1EC0F5
:102A7000253FFCE53F0799F070F0263F3C45D1F437
:102A800027E245EE66EE12C027E245EE0EC026E2D2
:102A900041EE60EE0BC027E245EE64EE07C026E291
:102AA00041EE62EE03C028E241E065EE0E94AE1402
:102AB00080E00895FC018281882319F01092E101E1
:102AC000089581E00895CF93DF93EC01FB018281AB
:102AD000882309F41FC1C230FCE5DF0708F41BC1DD
:102AE000C6319CE5D90738F09E012A5F3C45293064
:102AF000310508F010C10E942A239093F3028093BD
:102B0000F202C031ECE5DE0709F4C3C008F041C0B1
:102B1000C8308CE5D80709F49AC0F0F4C430ECE56D
:102B2000DE0709F487C068F4C2308CE5D80709F4E1
:102B300077C0C330DC4509F0E3C08091F2028260C7
:102B400076C0C630ECE5DE0709F46EC008F07BC045
:102B50008091F20288606BC0CC308CE5D80709F414
:102B600085C068F4CA30ECE5DE0709F474C008F0EB
:102B700079C00E94701C8091F202806858C0CE30EB
:102B80008CE5D80709F476C008F07FC08091F20286
:102B90008BC0CB3FECE5DE0709F44FC018F5C3311D
:102BA0008CE5D80709F47DC078F4C131ECE5DE0787
:102BB00009F473C0C231DC4509F0A2C00E94701C48
:102BC0008091F2028F7733C0C5318CE5D80709F4C4
:102BD00072C008F486C0CA3FDC4509F091C08091FC
:102BE000F3023EC0CF3FFCE5DF0709F45FC058F4B5
:102BF000CD3F9CE5D90709F444C008F43FC080915B
:102C0000F30282602DC0C130FDE5DF0709F475C015
:102C100008F45DC0C230DD4509F072C080E06EC0CE
:102C20008091F202816003C08091F2028061809302
:102C3000F20266C08091F20211C08091F3028260BC
:102C40008093F3025DC08091F2028062F0CF8091A8
:102C5000F2028064ECCF8091F20288608460E7CF5A
:102C60008160EECF8091F2028E7FE1CF8091F202FF
:102C70008D7FDDCF8091F202877FD9CF8091F302E3
:102C800018C08091F3028D7FDBCF8091F2028F7E9E
:102C9000CECF8091F2028F7DCACF8091F2028F7BDE
:102CA000C6CF8091F202877F8B7FC1CF8091F302E4
:102CB0008D7F8E7FC5CF8091F20282FB222720F983
:102CC00091E0922790FB82F990FB83F9B0CF80913D
:102CD000F302982F909591708E7F892B90FB81F94C
:102CE000AFCF0E94701C8091F20287FB222720F94F
:102CF00091E0922790FB87F99ACF81E00E94C2234E
:102D00008091F2029091F3020E943B230E94701C7A
:102D100080E001C081E0DF91CF910895CF93DF93F0
:102D200086319C4541F5EB010E943C22982F8A8117
:102D30002091120130911301882379F09A7A81E071
:102D400009F480E08093E201911102C069E201C0C0
:102D500065E3C9010E947F240AC08091E2018111CC
:102D600002C069E201C065E3C9010E948A240E9491
:102D70008A2280E001C081E0DF91CF910895909395
:102D8000E8018093E7010895E091E701F091E801FF
:102D9000309721F00190F081E02D099480E00895B2
:102DA000EF92FF921F93CF93DF93FC01A091E70175
:102DB000B091E801109709F442C080912601882360
:102DC00041F08091F20287FF04C08081818385E019
:102DD0008083EF011296ED91FC911397CE01099536
:102DE0008091760282FF2BC080FF04C08AE098E0C9
:102DF0000E94A50518E084E0E82E88E0F82E809176
:102E0000760280FF0BC088811F928F93FF92EF9212
:102E10000E943E060F900F900F900F901150219638
:102E20001111EDCF8091760280FF09C082E098E019
:102E3000DF91CF911F91FF90EF900C94A505DF914A
:102E4000CF911F91FF90EF900895E091E701F091ED
:102E5000E801309739F022E0DC012C930480F58101
:102E6000E02D099408952091E5013091E60128179D
:102E7000390771F09093E6018093E501E091E70155
:102E8000F091E801309721F00680F781E02D099458
:102E900008952091E3013091E4012817390771F07A
:102EA0009093E4018093E301E091E701F091E80160
:102EB000309721F00084F185E02D0994089585B7BD
:102EC000806885BF85B7806885BF089508950C9494
:102ED00066170C9467170C9466170C9466170E947B
:102EE0005F170E946B170C94691781E008950E9488
:102EF0002D250E9496090E949B250E9482120E9405
:102F0000AD100C946D17CF93C82F8091760282FF7D
:102F10001EC080FF04C083E298E00E94A505809156
:102F2000760280FF0CC01F92CF938EE198E09F93B2
:102F30008F930E943E060F900F900F900F908091FC
:102F4000760280FF04C08CE198E00E94A5058C2FDA
:102F5000CF910C94AE067F928F929F92AF92BF92C8
:102F6000CF92DF92EF92FF920F931F93CF93DF9355
:102F7000CDB7DEB72A970FB6F894DEBF0FBECDBF30
:102F80000E94FA090E947517811111C08FEF898381
:102F90008A831B820E9436258160782F9D838C83D3
:102FA00049815A816B818D810E945F184FC04AEE22
:102FB000A42E41E0B42E00E010E0702E802F0E947D
:102FC0003B096C01F501819091905F01882699265B
:102FD0008114910431F40F5F1F4F0430110569F71C
:102FE000D5CF8091760281FD0E94440980E0EE24D5
:102FF000E394F12C94012E213F21232B09F18E83A0
:103000007F82CE20DF2081E0CD2809F480E0888710
:103010000E9436258160782F9A8789874E815F814B
:1030200068858A850E945F18000F111FF801E6511C
:10303000FE4F80819181E826F926F182E08206C068
:103040008F5FEE0CFF1C8C30A9F6C5CF0E945C117F
:103050000E945E140E94AF270E94C4169091E9015D
:103060008917C9F00E94C4168093E9012A960FB609
:10307000F894DEBF0FBECDBFDF91CF911F910F91AE
:10308000FF90EF90DF90CF90BF90AF909F908F9088
:103090007F900C9483172A960FB6F894DEBF0FBE6C
:1030A000CDBFDF91CF911F910F91FF90EF90DF90F7
:1030B000CF90BF90AF909F908F907F900895CF93C7
:1030C000DF93CDB7DEB72B970FB6F894DEBF0FBEF8
:1030D000CDBF4F83588769877A878B87DE0111962A
:1030E00086E0FD0111928A95E9F785E0FE013796A9
:1030F00001900D928A95E1F749815A816B817C811B
:103100008D819E810E94291F2B960FB6F894DEBFF9
:103110000FBECDBFDF91CF910895FC0180819181D9
:103120000E94FD210895CF93882309F4A4C0C82FDD
:103130008238C1F40E94C41681FD9DC069E380916C
:103140001201909113010E947F240E948A222FEF86
:1031500081EE94E0215080409040E1F700C00000F3
:1031600069E319C0833801F50E94C41680FD83C04D
:1031700063E580911201909113010E947F240E94C7
:103180008A222FEF81EE94E0215080409040E1F7B9
:1031900000C0000063E580911201909113010E942C
:1031A0008A24CF910C948A228438C1F40E94C416D8
:1031B00082FD61C067E480911201909113010E9429
:1031C0007F240E948A222FEF81EE94E021508040DC
:1031D0009040E1F700C0000067E4DDCF8CEF8C0F7A
:1031E000813AD0F46C2F80911201909113010E94CA
:1031F000DD23882349F06C2F8091120190911301F7
:103200000E948A240E948A226C2F80911201909140
:1032100013010E947F24C5CF80E28C0F883048F4D0
:10322000C77081E001C0880FCA95EAF70E943F226B
:10323000B8CFEBE5EC0FE33040F4F0E0E554FE4F9F
:10324000808190E0CF910C943317E8E5EC0FE731E3
:1032500050F4F0E0EE0FFF1FE357FE4F80819181A5
:10326000CF910C944917C03F30F08C2F0E94352627
:10327000CF910C942227CF910895882309F464C03C
:10328000823879F40E94C41681FF5EC069E38091A0
:103290001201909113010E947F240E948A2269E307
:1032A00010C08338B1F40E94C41680FF4DC063E59E
:1032B00080911201909113010E947F240E948A2222
:1032C00063E580911201909113010E948A240C946D
:1032D0008A22843879F40E94C41682FF35C067E4DC
:1032E00080911201909113010E947F240E948A22F2
:1032F00067E4E7CF9CEF980F913A10F4682FE1CF85
:1033000090E2980F983050F4877091E001C0990FC7
:103310008A95EAF7892F0E944522D9CF9BE5980F1D
:10332000933020F480E090E00C94331798E5980FE8
:10333000973120F480E090E00C944917803F20F012
:103340000E949D260C9422270895CF93C82F0E9497
:103350009318C93349F42FEF87EE93E02150804052
:103360009040E1F700C000008C2FCF910C943D19E4
:10337000882321F00E943F220C948A2208958823FA
:1033800021F00E9445220C948A220895CF92DF9268
:10339000EF92FF920F931F93CF93DF937C01062F41
:1033A000C72FFC01158112951F70D281D1110E9487
:1033B0005C220E943522882379F0DD2369F080E2C7
:1033C000800F883048F082E00E94D4220E9435228B
:1033D00091E0D82ED92601C0D12CCC2EC2948FE0FA
:1033E000C8228C2D90E0FC01E659FF4F0C940E3161
:1033F0008C2F807FCF70882311F0C295C07FDD2392
:1034000099F0CC2309F4C4C180E2800F883010F019
:10341000011104C08C2F0E943F2203C08C2F0E94F8
:103420004F220E948A22B4C1802F0E943D19CC23D2
:1034300009F4D3C180E2800F883010F0011104C07C
:103440008C2F0E94452203C08C2F0E9455220E947F
:103450008A22C3C18C2F807FCF70803211F0C29539
:10346000C07F002319F00130C9F022C0DD2371F0C4
:10347000112341F0113031F40E946F228C2B0E94F5
:103480007722ABC10E946F228C2B1DC0112319F033
:10349000113009F4A2C10E94802225C0DD2321F051
:1034A000163008F09AC10EC0153008F096C11BC046
:1034B000DD2361F0112331F0F701858180FF68C1C0
:1034C0008F7085838C2F0E94B81987C1112359F002
:1034D000093309F06EC1FFEF27EE83E0F150204081
:1034E0008040E1F764C18C2F0E94BF1976C18C2FF8
:1034F00086958695837019F0813061F06EC1DD2369
:1035000021F0802F9C2F937002C080E090E00E94F9
:1035100033176BC1DD2321F0802F9C2F937002C0E5
:1035200080E090E00E94491760C1DD23F9F0053F7B
:1035300051F0063F71F0043FA9F48091EC029091A4
:10354000ED0281600BC08091EC029091ED028260EF
:1035500005C08091EC029091ED0284609093ED02A1
:103560008093EC02802F0E9435261EC0053F51F04B
:10357000063F71F0043FA9F48091EC029091ED02B6
:103580008E7F0BC08091EC029091ED028D7F05C083
:103590008091EC029091ED028B7F9093ED028093ED
:1035A000EC02802F0E949D260E9422271EC18C2F94
:1035B000837009F045C0D11114C1402F4295469542
:1035C0004770440F440F602F6F70862F90E0A0E08B
:1035D000B0E0042E04C0880F991FAA1FBB1F0A94D5
:1035E000D2F704FF10C00FE010E020E030E004C08C
:1035F000000F111F221F331F4A95D2F70095109517
:103600002095309503C000E010E09801C695C6955E
:10361000C370BC01CD01602B712B822B932BC23068
:1036200049F058F4C13019F00E947A20DAC00E94A3
:103630006820D7C00E948C20D4C00E946620D1C0D0
:10364000DD2319F08C2F817001C08695882309F441
:10365000C8C0402F429546954770440F440F602FD5
:103660006F70862F90E0A0E0B0E0042E04C0880FB9
:10367000991FAA1FBB1F0A94D2F704FF10C00FE0C6
:1036800010E020E030E004C0000F111F221F331FA4
:103690004A95D2F7009510952095309503C000E02B
:1036A00010E09801C695C695C370BC01CD01602B92
:1036B000712B822B932BC23049F058F4C13019F092
:1036C0000E943F218EC00E942D218BC00E9451215B
:1036D00088C00E94A02085C0CF70DD2339F08C2FD8
:1036E0000E94C620802F0E94B8197BC0802F0E94A4
:1036F000BF198C2F0E94E72074C0023F01F128F40B
:10370000003F41F0013FA1F03FC0033FF9F0043F0B
:1037100039F13AC0DD2341F0153008F05EC08C2F3E
:103720008F710E940C2159C0163008F056C0F7CF97
:10373000DD2339F08C2F8F710E94C6204EC0DD230F
:10374000C9F38C2F8F710E94E72047C0DD2329F039
:103750008C2F8F710E94B12040C00E94AC203DC0D0
:10376000DD2349F0CF718C2F0E94C62063E08C2F9F
:103770000E94BF2232C081E00E94D422123068F140
:1037800082E00E94D42229C0DD2331F0112391F27E
:10379000802F0E94931821C0112399F2093349F414
:1037A0009FEFE7EEF3E09150E040F040E1F700C01A
:1037B0000000802F0E943D1910C04C2F4F70602FC9
:1037C000C7010E942D070E94D71F0FC04C2F4F70BA
:1037D000602FC7010E94300708C088EF8C0D84302D
:1037E00020F40E94C4160E94AE06DD20C9F00E949B
:1037F000312280FD15C0F70112820E942B220E9407
:10380000C620C7010E94311C0E942B22DF91CF915C
:103810001F910F91FF90EF90DF90CF900C94E720D5
:10382000DF91CF911F910F91FF90EF90DF90CF909C
:1038300008950F931F93CF93DF93EC0168817981F3
:103840008A810E9408228C010E9463210E945420D8
:10385000B801CE010E94C619DF91CF911F910F913F
:103860000895CF93DF93FC0190818181238134817E
:10387000232B31F08F3F31F481E09F3F19F403C0D7
:1038800081E001C080E080FD0EC0EF01CF010E9409
:10389000C706882341F0CE010E94191CCE01DF919A
:1038A000CF910C949006DF91CF9108950E945C22F5
:1038B0000E946C220E948A220E94CE280E94222707
:1038C00080E090E00E94331780E090E00C9449176C
:1038D00080911201909113010E9495240C94561C22
:1038E0000E944C220C94681CE92FE295EF704E2F39
:1038F00050E0FA013297EE30F105B0F4E658FF4F90
:103900000C940E31803F91F018F4883E68F40EC09C
:10391000843F51F40BC0883E48F0813F29F406C033
:1039200093FB882780F9089580E0089581E0089549
:103930000E94FD210E94741C0895CF93DF9300D054
:1039400000D01F92CDB7DEB70F900F900F900F9061
:103950000F90DF91CF910895CF93DF9300D000D0E7
:1039600000D0CDB7DEB726960FB6F894DEBF0FBEF7
:10397000CDBFDF91CF9108951F93CF93DF93C09177
:10398000F30116E08091F401C81799F0D0E01C9F74
:10399000F0011D9FF00D1124EB50FE4F408151812D
:1039A00062817381848195810E94AC1C2196C770CD
:1039B000E9CFDF91CF911F91089540912502509159
:1039C000260260912702709128028091290290912D
:1039D0002A020C94AC1C0F931F93CF93DF9380911A
:1039E0002A0282958F7009F05DC08091270288239A
:1039F00009F458C08091F3011091F40160912502FF
:103A000070912602C0912802D091290291E06F3F67
:103A100009F090E0292F06E0811709F443C02097B0
:103A200021F07F3F21F030E003C031E001C0322FB0
:103A300090E030FD34C0089FF001099FF00D112483
:103A4000DF01AB50BE4F11963C911197371327C041
:103A50003C91361324C012963C91129731111FC02D
:103A600013964D915C9114974C1B5D0B483C51058E
:103A7000B0F480912A028F70806180932A02E65010
:103A8000FE4F80818F708061808385E292E00E948A
:103A9000311CDF91CF911F910F910C94BC1C0196AA
:103AA0008770BACFDF91CF911F910F9108959F92A8
:103AB000AF92BF92CF92DF92EF92FF920F931F933C
:103AC000CF93DF93CDB7DEB761970FB6F894DEBF23
:103AD0000FBECDBF8C0185E0F801DE011D9601907F
:103AE0000D928A95E1F7F80140815181E280909131
:103AF0002502609126022091280230912902211589
:103B0000310531F06F3F31F481E09F3F19F403C07C
:103B100081E001C080E0F82FF1709F2E80FD46C14A
:103B2000F801A380B48085E2C82E82E0D82EF09000
:103B30002702F501E21BF30BFF2009F4DFC080919F
:103B40002A02E83CF10508F09BC0282F207F09F0ED
:103B500052C0561313C0491311C0FE2CE1100EC001
:103B60008F70806180932A020E94DD1CC6010E9432
:103B7000311C80912A02F801858358C1AB2831F0AD
:103B80005F3F31F481E04F3F19F403C081E001C091
:103B900080E080FD03C081E08E2502C080E090E0DF
:103BA000F82FF170FF2E80FF1CC08091F30120914F
:103BB000F40136E0821709F417C190E0389FF00154
:103BC000399FF00D1124EB50FE4F6181561306C052
:103BD0006081461303C06281E61203C001968770BC
:103BE000E9CFFE2CEE2009F421C180912A028160E8
:103BF00080932A025AC0561306C0491304C0E1102C
:103C000002C0F8019FC04D875E878D859E850E940A
:103C1000981C882379F1EE2069F120912A02822FE5
:103C200082958F7090E0029774F0809125029091B8
:103C3000260298878F831986BB86AA862C87CE0199
:103C400007960E94311C86E0F801A5E2B2E00190DF
:103C50000D928A95E1F70E94EB1C0E94DD1C0DC0BD
:103C6000561729F14D875E878D859E850E94981C89
:103C700081112CC0C8010E94311CFF24F394D6C0CE
:103C8000282F207F69F77A2DB98AA88A6E2D898915
:103C90000E949D1C85E292E00E94311C86E0F601A4
:103CA00011928A95E9F70E94DD1CF12CBFC04913DF
:103CB000D9CFE110D7CFF8018583C8010E94311C0C
:103CC00086E0F60111928A95E9F7B0C0EE2091F2F4
:103CD00020912A02822F82958F7090E002970CF437
:103CE000B2CF80912502909126029A8389831B820C
:103CF000BD82AC822E83CE010196A3CFE83CF105B4
:103D000008F047C0FE2CEE2009F4B4CF561330C0A3
:103D100049132EC020912A0220FD21C0822F8295B6
:103D20008F70482F50E041155105C9F0F8012583E7
:103D30004F30510541F08F5F982F9295907F822FE1
:103D40008F70892B8583C8010E94311C86E0F801A1
:103D5000A5E2B2E001900D928A95E1F742C086E0BB
:103D6000F801A5E2B2E001900D928A95E1F75EC0FC
:103D70004D875E878D859E850E94981C811163CF3B
:103D800080912A02816080932A02C8010E94311C1E
:103D90004DC07A2DB98AA88A6E2D89890E949D1CF2
:103DA00086E0F60111928A95E9F71BC0EE2009F42E
:103DB00061CF4D875E878D859E850E94981CF82E69
:103DC000882309F457CF86E0F801A5E2B2E001901C
:103DD0000D928A95E1F785E292E00E948D180E948B
:103DE000EB1C0E94DD1C22C04D875E878D859E8561
:103DF0000E94FD21292F22952F70223028F49F70D8
:103E000039F0811105C00BC0243028F49F7049F4AB
:103E1000805E883020F0C8010E94311C9F2CF92C54
:103E200005C0F8019581907F99F7F9CF8F2D6196A4
:103E30000FB6F894DEBF0FBECDBFDF91CF911F91BB
:103E40000F91FF90EF90DF90CF90BF90AF909F9039
:103E500008951F93CF93DF93CDB7DEB72C970FB69E
:103E6000F894DEBF0FBECDBF4F83588769877A872E
:103E70008B879C87CE0107960E94571D8823D1F01F
:103E80009F8188852A853B85232B31F08F3F31F434
:103E900081E09F3F19F403C081E001C080E080FD14
:103EA00047C04F81588569857A858B859C850E949E
:103EB000AC1C3EC086E0FE013796DE0111960190F3
:103EC0000D928A95E1F7FF81E8856A857B8561150A
:103ED000710531F0EF3F31F481E0FF3F19F403C089
:103EE00081E001C080E080FD23C02091F40130E03A
:103EF000C9010196877099274091F30150E084171A
:103F00009507F1F1F983EA837D836C8396E0929FB4
:103F1000D001939FB00D1124AB50BE4FFE013196DE
:103F200001900D929A95E1F78093F4010E94BC1CD8
:103F300016E08091F3019091F401891771F1189FB7
:103F4000C00111248B509E4F0E94571D882329F1D8
:103F5000E091F3011E9FF0011124EB50FE4F4081D0
:103F6000518162817381848195810E94AC1C809112
:103F7000F30190E00196877099278093F301D9CFE0
:103F80000E94701C1092F4011092F301E5E2F2E03D
:103F900086E0DF011D928A95E9F72C960FB6F8941A
:103FA000DEBF0FBECDBFDF91CF911F910895EF927D
:103FB000FF920F931F93CF93DF938C01892B09F40A
:103FC0006CC0F12CEE24E394E8012196F801849171
:103FD000843740F4843008F051C0813081F0823061
:103FE00019F15BC0853709F444C0A8F19CE7980F2C
:103FF000903708F052C08F770E943D1941C00E5F84
:104000001F4FFE01849190E2980F983050F4877012
:10401000FE2D01C0FF0F8A95EAF78F2F0E945F22C5
:1040200014C00E9493182DC00E5F1F4FFE01849193
:1040300090E2980F983060F48770FE2D01C0FF0F5A
:104040008A95EAF78F2F0E9465220E948A2219C062
:104050000E943D1916C00E5F1F4FFE01C491CC2374
:1040600081F08FE99FE00197F1F700C00000C15097
:10407000F6CF0E5F1F4FFE01F49003C00E9493180D
:104080008E018F2D882309F49FCFEFE9FFE0319750
:10409000F1F700C000008150F5CFDF91CF911F9163
:1040A0000F91FF90EF900895089508950C94552076
:1040B0000C9456200E94582060934D0270934E023B
:1040C00080934F02909350020C94561C0C945A20EB
:1040D0000F931F9300914D0210914E0220914F02B9
:1040E00030915002602B712B822B932B1F910F91DB
:1040F0000C945A200F931F9300914D0210914E0281
:1041000020914F0230915002602371238223932328
:104110001F910F910C945A200F931F9300914D0201
:1041200010914E0220914F0230915002602771276A
:10413000822793271F910F910C945A200C9455209D
:104140000E949E206093490270934A0280934B0222
:1041500090934C020C94561C60E070E0CB010C94E0
:10416000A0200F931F9341E050E060E070E08A01CF
:104170009B0104C0000F111F221F331F8A95D2F725
:10418000C901B8011F910F910C94A0200F931F93A8
:1041900041E050E060E070E004C0440F551F661F2E
:1041A000771F8A95D2F78091490290914A02A09197
:1041B0004B02B0914C028A019B01082B192B2A2B30
:1041C0003B2BC901B8011F910F910C94A0200F93B4
:1041D0001F9341E050E060E070E004C0440F551FC1
:1041E000661F771F8A95D2F7409550956095709518
:1041F0008091490290914A02A0914B02B0914C02E9
:104200008A019B01082319232A233B23C901B801F2
:104210001F910F910C94A0200F931F9341E050E049
:1042200060E070E004C0440F551F661F771F8A9539
:10423000D2F78091490290914A02A0914B02B0912D
:104240004C028A019B01082719272A273B27C9010D
:10425000B8011F910F910C94A0200F931F93009110
:10426000490210914A0220914B0230914C02602B7E
:10427000712B822B932B1F910F910C94A0200F93E5
:104280001F930091490210914A0220914B023091F4
:104290004C0260237123822393231F910F910C946E
:1042A000A0200F931F930091490210914A02209180
:1042B0004B0230914C0260277127822793271F9170
:1042C0000F910C94A02008952CE0929F800D112452
:1042D000E82FE695E695E695877051E001C0550F09
:1042E0008A95EAF785E0E89FF0011124E55DFD4F2E
:1042F00020E030E070E04081CB01022E02C09695B4
:1043000087950A94E2F78170819584278523842715
:1043100081932F5F3F4F2530310569F708952CE0D9
:10432000929F800D1124682F669566956695982F4B
:10433000977085E0689FB001112440E050E080E074
:10434000FB01E40FF51FE55DFD4F208130E0092EF4
:1043500002C0369527950A94E2F721703327042E80
:1043600001C0220F0A94EAF7822B4F5F5F4F45305E
:10437000510531F70895BF92CF92DF92EF92FF92ED
:104380000F931F93CF93DF938C01C0904902D0907D
:104390004A02E0904B02F0904C0280914D029091C5
:1043A0004E02A0914F02B0915002C82AD92AEA2A9F
:1043B000FB2ACFE1D0E0D701C6010C2E04C0B69590
:1043C000A795979587950A94D2F780FD04C0219709
:1043D00090F7B12C07C0BC2EB8018C2F0E944C075F
:1043E0000197A9F38B2DDF91CF911F910F91FF9032
:1043F000EF90DF90CF90BF900895CF93DF93EC01C3
:104400000E94BB21BE010E944C07DF91CF9108950D
:104410001F93CF93DF93EB019091F201992321F049
:10442000CB010E94FD2113C0882349F0CB010E94DB
:10443000BB21182F682FCE010E94642104C0CB013C
:104440000E948F21182FBE01812F0E944C07DF91FF
:10445000CF911F91089580915102859585958595FD
:10446000089580915102877008959091510297703C
:1044700081E009F480E0089580917502089590919B
:104480007502892B8093750208958095909175022D
:104490008923809375020895109275020895909172
:1044A0007402892B80937402089580959091740210
:1044B0008923809374020895109274020895909154
:1044C0007302892B809373020895809590917302F3
:1044D0008923809373020895109273020895809146
:1044E0005202089508950C9472220C9473229091B4
:1044F0005202981721F0809352020C94752208956D
:1045000080915202882329F01092520280E00C948C
:1045100075220895E0911201F091130180917502C6
:104520008083E0911201F0911301908180917402D7
:10453000892B8083E0911201F09113019081809189
:104540007302892B808380915202882381F0E0914D
:104550001201F09113019081892B808380911201C7
:10456000909113010E94C72381110E9480228091A3
:104570001201909113010C94D0160C94722298E0C1
:10458000899F90011124262B209351020E94C6205E
:10459000809151028595859585950C94BD22109248
:1045A000510280E00C94BD2220915102809582231B
:1045B00080935102982F977079F430E0482F082E9D
:1045C000000C550B2417350739F085958595859591
:1045D0000E94E7200C94CF2208959093CF018093FE
:1045E000CE0108958295982F937344E0949F900193
:1045F00011248C7C86958695282B822F8575880FB3
:104600002A7A2695822B0895CF93DF93D92F0E9483
:10461000F222C82F8D2F0E94F2222C2F30E0322F51
:104620002227A901482BCA01DF91CF91089580E08C
:1046300090E00E94493121E08C3E9E4F09F020E03D
:10464000822F089582E090E00C943B3183E090E06B
:104650000C943B31CF9384E090E00E943B31C82F13
:1046600081E290E00E943B312C2F30E0A901582BD1
:10467000CA01CF910895CF93C92F682F84E090E0AD
:104680000E944F316C2F81E290E0CF910C944F311A
:1046900086E090E00C943B31682F86E090E00C942B
:1046A0004F31AB01BC018FE090E00C946131AB0164
:1046B000BC0183E190E00C94613160E070E0CB01DB
:1046C0000C94572360E070E0CB010E9451230C94BE
:1046D0005D236CEE7EEF80E090E00E946D3160E043
:1046E00082E090E00E944F3160E083E090E00E9421
:1046F0004F3110924D0210924E0210924F021092C2
:10470000500260E084E090E00E944F3160E081E27E
:1047100090E00E944F3160E085E090E00E944F31D0
:1047200060E086E090E00E944F316FEF87E090E01C
:104730000E944F3140E050E0BA0188E090E00E94D2
:10474000613160E08DE090E00E944F3140E050E048
:10475000BA0188E190E00E94613160E087E190E079
:104760000E944F3140E050E0BA018CE190E00E949D
:10477000613160E080E290E00E944F310C9462234E
:104780000C946923682F8EE090E00C944F31FC016B
:10479000329680912601882331F08091F20287FFC2
:1047A00002C09EE101C096E080E0915028F0219186
:1047B0002223D9F38F5FF9CF0895662351F1209119
:1047C00026012223E9F02091F20227FF19C0462F8B
:1047D0004695469546954E31E0F4677021E030E00D
:1047E00002C0220F331F6A95E2F7FC01E40FF11DAE
:1047F000828190E02823392381E0232B69F409C0CA
:10480000FC01329608962191621729F0E817F90702
:10481000D1F780E0089581E008959C01FC01329673
:104820009FEF80E04191461789F09F3F19F44111B5
:1048300001C0982F8F5F8630A9F79F3F39F0F901AB
:10484000E90FF11D97FDFA956283089508959C0183
:104850002A5F3F4FFC014281461301C0128201963C
:1048600082179307B9F70895262F26952695269542
:104870002E3170F4FC01E20FF11D677021E030E091
:1048800001C0220F6A95EAF78281282B22830895BE
:104890008091760280FF0CC01F926F9384E598E0B0
:1048A0009F938F930E943E060F900F900F900F9052
:1048B0000895262F2695269526952E3178F4FC010D
:1048C000E20FF11D677021E030E001C0220F6A9510
:1048D000EAF7209582812823228308958091760229
:1048E00080FF0CC01F926F9386E398E09F938F9395
:1048F0000E943E060F900F900F900F900895209108
:104900002601222329F02091F20227FD0C94342461
:104910000C940D2420912601222329F02091F202EB
:1049200027FD0C9459240C94272420912601FC0186
:104930003296222331F08091F20287FF02C08EE18D
:1049400001C086E0DF011D928A95E9F70895089578
:104950000C94A7240C94A724CF930E94AA240E940D
:10496000FA090E94A824C0E08C2F0E943B09892BE1
:1049700029F4CF5FC430C1F780E001C081E0CF915E
:1049800008950C94A7240C94C1240E94C324809100
:10499000F802843061F11092770220E488E190E01F
:1049A0000FB6F894A895809360000FBE2093600026
:1049B00080E00E94FD1380E00E94AE060E94C324A6
:1049C00083B7817F846083BF83B7816083BF78941E
:1049D000889583B78E7F83BF0FB6F894A895809192
:1049E0006000886180936000109260000FBE08959F
:1049F0000C94A7240E94701C0E9482120E94C4166C
:104A00000E94AE060C94F8241F920F920FB60F92DC
:104A100011248F939F93AF93BF938091770281115D
:104A200013C08091EE029091EF02A091F002B0913C
:104A3000F1024196A11DB11D8093EE029093EF0209
:104A4000A093F002B093F102BF91AF919F918F912B
:104A50000F900FBE0F901F90189582E084BD93E0D9
:104A600095BD9AEF97BD80936E0008952FB7F89487
:104A70008091EE029091EF02A091F002B091F102CC
:104A80002FBF08959C014FB7F8948091EE0290914A
:104A9000EF02A091F002B091F1024FBF821B930B85
:104AA000089578941F920F920FB60F9211248F934E
:104AB0009F93AF93BF938091EE029091EF02A091EC
:104AC000F002B091F1020196A11DB11D8093EE029A
:104AD0009093EF02A093F002B093F102BF91AF91D7
:104AE0009F918F910F900FBE0F901F90189581E0AE
:104AF0008093E00080E28093D8001092C9008FE19B
:104B00009EE40197F1F700C0000087E090EBDC0124
:104B10008093010390930203A0930303B0930403D3
:104B20009CE088E10FB6F894A895809360000FBED2
:104B300090936000FFCF0E941723811102C00E9452
:104B4000C0230E942223809376020E942A239093FE
:104B5000F3028093F2020E942623682F70E080E027
:104B600090E00C94662080917F0280FF0BC06091E2
:104B7000190185E0689FB0011124759567957595B9
:104B800067952BC081FF09C06091190185E0689F7E
:104B9000B00111247595679520C082FF07C0609110
:104BA000190185E0689FB001112417C090917E0221
:104BB0009923D1F060911801961788F72091190177
:104BC00085E0289F90011124929FA001939F500D92
:104BD000112470E0CA010E94D8306038710540F499
:104BE0006115710519F406C065E070E0862F08951F
:104BF0008FE7089581E0089580917F0280FF08C0CB
:104C00006091150170E0759567957595679521C060
:104C100081FF06C06091150170E07595679519C018
:104C200082FF04C06091150170E010C090917E0277
:104C3000992399F0609114019617A0F780911501BE
:104C4000899FC001112470E00E94D830603871053E
:104C500040F46115710519F406C061E070E0862F1B
:104C600008958FE7089581E00895803F21F40E9420
:104C7000B325819504C0813F29F40E94B325809318
:104C800083020895823F21F40E94B325819504C0D8
:104C9000833F29F40E94B325809382020895893FBF
:104CA00019F40E94FC2505C08A3F31F40E94FC25BE
:104CB00081958093840208958B3F21F40E94FC2506
:104CC000819504C08C3F29F40E94FC2580938502C5
:104CD0000895843F21F480918102816017C0853F4F
:104CE00021F480918102826011C0863F21F480917D
:104CF000810284600BC0873F21F48091810288602B
:104D000005C0883F31F480918102806180938102E7
:104D100008958D3F21F480917F0281600BC08E3F0A
:104D200021F480917F02826005C08F3F29F4809139
:104D30007F02846080937F020895803F39F48091E0
:104D4000830287FF6CC01092830269C0813F29F4FF
:104D5000809183021816BCF362C090918202823F58
:104D600029F497FF5CC01092820259C0833F19F466
:104D70001916CCF354C0893F41F48091840218166F
:104D80000CF04DC0109284024AC08A3F29F48091F1
:104D9000840287FF44C0F6CF8B3F39F480918502AF
:104DA00087FF3DC0109285023AC08C3F29F4809164
:104DB00085021816BCF333C0843F21F48091810230
:104DC0008E7F17C0853F21F4809181028D7F11C0B5
:104DD000863F21F4809181028B7F0BC0873F21F4B5
:104DE00080918102877F05C0883F31F480918102E4
:104DF0008F7E8093810213C08D3F21F480917F02CA
:104E00008E7F0BC08E3F21F480917F028D7F05C085
:104E10008F3F29F480917F028B7F80937F02809166
:104E2000820281110EC08091830281110AC080919B
:104E30008402811106C080918502811102C0109206
:104E40007E0208958091760283FF7EC089E998E012
:104E50000E94A505809181021F928F9384E998E0BA
:104E60009F938F930E943E0682E998E00E94A505D9
:104E700080918202282F082E000C330B3F938F93D2
:104E80008FE898E09F938F930E943E068DE898E00C
:104E90000E94A50580918302282F082E000C330B59
:104EA0003F938F938AE898E09F938F930E943E06EA
:104EB00088E898E00E94A50580918402282F082E9A
:104EC000000C330B3F938F9385E898E09F938F936B
:104ED0000E943E0683E898E00E94A5058091850225
:104EE000282F082E000C330B3F938F9380E898E017
:104EF0009F938F930E943E068DE798E00E94A50540
:104F000080917E021F928F938AE798E09F938F9300
:104F10000E943E0688E798E00E94A50580917F02E6
:104F20001F928F9385E798E09F938F930E943E0690
:104F300082E798E00E94A5058DB79EB74C960FB604
:104F4000F8949EBF0FBE8DBF80E892E00E942517A7
:104F50000E94362590937D0280937C020895CF9322
:104F6000DF9300D000D000D0CDB7DEB786E0E0E818
:104F7000F2E0DE01119601900D928A95E1F78091A1
:104F80008202811105C080918302882309F47AC0CE
:104F900080917A0290917B020E944225AC0190910F
:104FA0007E02992339F020911A0130E02417350749
:104FB00058F068C020911B018AE0289F90011124BD
:104FC0002417350718F05EC09F3F19F09F5F90933C
:104FD0007E0210928402109285028091820218163D
:104FE00024F40E94B325809382028091820287FF7D
:104FF00005C00E94B325819580938202809183022F
:10500000181624F40E94B3258093830280918302B2
:1050100087FF05C00E94B32581958093830230915C
:1050200082023323E1F0209183022223C1F045EB79
:105030003403C0011124992319F09093820203C014
:1050400081E08093820235EB2303C0011124992370
:1050500019F09093830203C081E0809383020E9441
:10506000222780917C0290917D0290937B02809315
:105070007A0286E0FE013196A0E8B2E001900D923E
:105080008A95E1F780918402811105C080918502A3
:10509000882309F47AC080917802909179020E9465
:1050A0004225AC0190917E02992339F0209116019E
:1050B00030E02417350758F068C0209117018AE0C6
:1050C000289F900111242417350718F05EC09F3FD8
:1050D00019F09F5F90937E021092820210928302D9
:1050E00080918402181624F40E94FC258093840287
:1050F0008091840287FF05C00E94FC2581958093E2
:10510000840280918502181624F40E94FC25809365
:1051100085028091850287FF05C00E94FC2581954C
:1051200080938502309184023323E1F0209185023F
:105130002223C1F045EB3403C0011124992319F057
:105140009093840203C081E08093840235EB2303B3
:10515000C0011124992319F09093850203C081E0C6
:10516000809385020E94222780917C0290917D028B
:10517000909379028093780286E0FE013196A0E850
:10518000B2E001900D928A95E1F726960FB6F89459
:10519000DEBF0FBECDBFDF91CF910895E0E8F2E012
:1051A00086E0DF011D928A95E9F710927E02109247
:1051B0007F0208958091A90208959FB7F8941092F4
:1051C00088029FBF9091F802943009F057C09091E7
:1051D000E9009F703091EC00232F217030FD20E812
:1051E000922B23E02093E9002091EB0020FF43C0A5
:1051F0002091EE0027FF3FC020918602222321F05C
:105200002091E80025FF37C01092860226E03091F9
:10521000E80035FD15C03091F802343061F5309169
:10522000EB0035FD28C0215021F481E080938602F7
:1052300022C0EFE9FFE03197F1F700C00000E7CFAF
:105240008093F1008091E80085FD0AC08091E8001C
:1052500080FFFCCF8091E8008E778093E80006C045
:105260008FB7F89421E0209388028FBF9F709093AE
:10527000E90080E008959F709093E9008FEF089512
:10528000CF93DF9300D01F92CDB7DEB79091F80295
:10529000943019F589837B836A8382E08093E900E7
:1052A0008FEF9091E800815095FD06C095ED9A959D
:1052B000F1F700008111F5CF8091E80085FF0DC066
:1052C00040E050E063E070E0CE0101960E94FD2BCB
:1052D0008091E8008E778093E8000F900F900F90F8
:1052E000DF91CF910895CF93DF93EC010E94E02BE3
:1052F000823011F0843031F4BE0184E0DF91CF912F
:105300000C944029DF91CF910895BC0183E00C9467
:105310004029CF93DF93EC010E94E02B823011F003
:105320008430F9F482E08093E9008FEF9091E800F7
:10533000815095FD06C095ED9A95F1F70000811119
:10534000F5CF8091E80085FF0CC040E050E066E0BA
:1053500070E0CE010E94FD2B8091E8008E77809353
:10536000E800DF91CF910895CF93DF93EC010E9485
:10537000E02B823011F08430D9F58091260188230A
:1053800039F08091F20287FF03C060E282E002C040
:1053900068E081E08093E9008FEF9091E800815010
:1053A00095FD06C095ED9A95F1F700008111F5CFB6
:1053B0008091E80085FF1CC080912601811105C005
:1053C00040E050E068E070E003C070E040E050E092
:1053D000CE010E94FD2B8091E8008E778093E8003B
:1053E00080E2FE01A9E8B2E001900D928A95E1F712
:1053F000DF91CF91089581EE98E00E94A5058091FC
:10540000F702811109C00E948E2D0E94EB2D809120
:10541000E20084608093E20008958DED98E00E94A0
:10542000A5051092F702089589ED98E00C94A50562
:1054300085ED98E00C94A50581ED98E00E94A50506
:105440000C94FA24209187022F5F822F62E30E943E
:10545000AA30992319F020938702089510928702A9
:1054600080918802882371F18091F802843041F59F
:105470008091E9008F702091EC00922F917020FDB7
:1054800090E8892B93E09093E9009091EB0090FFD6
:1054900014C09091EE0097FF10C09091E80095FF26
:1054A00003C01092F100F9CF9091E80090FF05C081
:1054B0009091E8009E779093E8008F708093E900C8
:1054C00010928802089542E061EC81E00E94072D6D
:1054D00042E261EC82E00E94072D42E261EC83E04F
:1054E0000C94072D8091FA02833009F460C030F4E7
:1054F000813071F0823009F499C008958A3009F43E
:1055000085C08B3009F46BC0893009F0A7C020C07A
:105510008091F902813A09F0A1C08091E800877F6B
:105520008093E8008091FD029091FE02892B21F486
:1055300060E289E892E003C060E080E090E070E023
:105540000E94482C8091E8008B778093E8000895B2
:105550008091F902813209F081C08091FD02909121
:10556000FE02029708F07AC08091E800877F80935E
:10557000E8008091E80082FD05C08091F802811169
:10558000F8CF6CC02091F3008091F20090E0922B54
:10559000029729F48091F1008B7F813021F4809172
:1055A000F1008093A9028091E8008B7753C080912D
:1055B000F902813A09F052C08091FD029091FE02F9
:1055C000892B09F04BC08091E800877F8093E80029
:1055D0008091E80080FFFCCF8091260136C0809149
:1055E000F9028132D9F58091FD029091FE02892B5A
:1055F000A9F58091E800877F8093E8000E943C2D08
:105600008091FB02809326010C94701C8091F9021A
:10561000813221F58091E800877F8093E8000E9425
:105620003C2D8091FC028093AA0208958091F9029A
:10563000813AA1F48091E800877F8093E80080910F
:10564000E80080FFFCCF8091AA028093F100809156
:10565000E8008E778093E8000C943C2D089584B781
:10566000877F84BF0FB6F894A89580916000886109
:1056700080936000109260000FBE90E080E80FB64B
:10568000F89480936100909361000FBE0E946F17A1
:105690000E948E2D0E94EB2D8091E2008460809309
:1056A000E2008DED98E20E94ED2278940E947F3016
:1056B0000E9477178CE191E00E94BF1680EC98E081
:1056C0000E94A5058091F802853089F48CEB98E062
:1056D0000E94A5050E94C5248091F602882391F3BB
:1056E0000E94AC24882371F30E94E72BEBCF0E9429
:1056F000AB17E8CF0C947C2B292F332723303105AF
:10570000C9F060F42130310581F02230310509F013
:1057100047C08BE590E025E139E046C021323105F4
:1057200011F12232310561F13BC082E190E020E7C6
:1057300039E03AC099278130910561F040F082301C
:10574000910559F0039761F5E5EEF8E008C0E1E155
:10575000F9E005C0EFEFF8E002C0EBEEF8E084916D
:1057600090E09F0121C063307105D0F4660F771F70
:10577000FB01E953FE4F2081318189E090E014C0A4
:105780006330710568F4FB01EE0FFF1FEF53FE4F0E
:1057900020813181FB01E254FE4F808190E004C002
:1057A00080E090E020E030E0FA013183208308952A
:1057B0008091F802843011F081E0089582E008952C
:1057C0008091AB02811102C00C94D82B089580E126
:1057D00089BD82E189BD09B400FEFDCF8091D8006A
:1057E0008F7D8093D8008091E00082608093E000FC
:1057F0008091E00081FDFCCF0895CF92DF92EF927F
:10580000FF920F931F93CF93DF93EC018B017A01EB
:105810000E945B2D811133C0E114F10439F0F701CE
:1058200080819181081B190BC80FD91FC12CD12C65
:105830000115110519F18091E80085FD16C08091D0
:10584000E8008E778093E800E114F10449F0F70155
:1058500080819181C80ED91ED182C08285E00FC09F
:105860000E945B2D882321F30AC089918093F10067
:1058700001501109FFEFCF1ADF0ADACF80E0DF9184
:10588000CF911F910F91FF90EF90DF90CF900895EF
:105890002091FF02309100032617370748F0611569
:1058A000710539F42091E8002E772093E80001C0BB
:1058B000B901FC0120E06115710579F18091F802D0
:1058C0008823F1F18530F1F18091E80083FD3CC03F
:1058D0008091E80082FD2EC08091E80080FFEBCF30
:1058E0002091F3008091F20090E0922B61157105F8
:1058F00051F08830910538F421912093F1006150E6
:1059000071090196F3CF21E0089709F020E080911A
:10591000E8008E778093E800CECF2111CFCF0AC068
:105920008091F802882361F0853061F08091E80071
:1059300083FD0AC08091E80082FFF2CF80E00895E5
:1059400082E0089583E0089581E008952091FF02A8
:10595000309100032617370748F06115710539F4B7
:105960002091E8002E772093E80001C0B901FC01E6
:1059700020E06115710591F18091F802882309F406
:1059800040C0853009F43FC08091E80083FD3DC0F0
:105990008091E80082FD2FC08091E80080FFE9CF70
:1059A0002091F3008091F20090E0922B6115710537
:1059B00059F08830910540F424912093F1003196FC
:1059C000615071090196F2CF21E0089709F020E0BB
:1059D0008091E8008E778093E800CBCF2111CCCF67
:1059E0000AC08091F802882361F0853061F08091CF
:1059F000E80083FD0AC08091E80082FFF2CF80E0DA
:105A0000089582E0089583E0089581E00895982F35
:105A1000973068F59093E900981739F07091EC0091
:105A20002091ED005091F00003C0242F762F50E01C
:105A300021FD02C09F5FECCF3091EB003E7F3093A1
:105A4000EB003091ED003D7F3093ED003091EB00A5
:105A500031603093EB007093EC002093ED00509395
:105A6000F0002091EE0027FDE5CF80E008958F70D3
:105A70008093E90081E008958091F90287FF11C0C9
:105A80008091E80082FD05C08091F8028111F8CF75
:105A900011C08091E8008B770BC08091F8028823B9
:105AA00049F08091E80080FFF8CF8091E8008E7780
:105AB0008093E80008952091E4003091E50095E698
:105AC0004091EC00842F817040FF23C08091E8005A
:105AD00080FD1DC08091F802882399F0853099F0EF
